:020000040800F2
:100000003007002081010008B7030008B50300088D
:1000100000000000000000000000000000000000E0
:10002000000000000000000000000000BF05000804
:100030000000000000000000BD050008C105000828
:100040009301000893010008930100089301000840
:1000500093010008250200086D02000893010008C2
:100060009301000893010008930100089301000820
:100070009301000893010008930100089301000810
:1000800093010008CD0500089301000893010008C2
:1000900093010008930100089301000893010008F0
:1000A00093010008930100089301000893010008E0
:1000B0009301000849060008930100089301000815
:1000C00000F002F800F04CF812A030C808382418EC
:1000D0002D18AC4201D100F043F80FCCA246AB463C
:1000E0000CA730CF2D1B083F3F197C427F1E544484
:1000F0002D090426F441641EAC4201D300F030F80F
:100100000126334200D0FB1A3343984754465D46DC
:10011000DFE70000140C0000340C0000103A02D39A
:1001200078C878C1FAD8520701D330C830C101D598
:1001300004680C6070470000704700000023002432
:1001400000250026103A01D378C1FBD8520700D30E
:1001500030C100D50B6070471FB51FBD10B510BD75
:1001600000F02DF81146FFF7F7FF00F07BFA00F0E2
:1001700045F803B4FFF7F2FF03BC00F04BF80000B2
:100180000748804707480047FEE7FEE7FEE7FEE72F
:10019000FEE7FEE704480549054A064B70470000A4
:1001A000C9050008C1000008300100203007002008
:1001B00030030020300300207047704770477546B9
:1001C00000F024F8AE46050069465346C008C0005A
:1001D000854618B020B5FFF7DDFF60BCB6460026A7
:1001E0000027C0C5C0C5C0C5C0C5C0C5C0C5C0C545
:1001F000C0C5403D490849008D46704710B50446CA
:10020000C046C0462046FFF7B4FF10BD0048704707
:100210009800002001491820ABBEFEE7260002002E
:100220007047000010B5E348016900290BD001694F
:10023000012915D10021C1600122D205174B1C688C
:1002400014431C600BE001210170DB490968C160A7
:1002500012490A68802313430B600169491C01613C
:100260000F48016801220A43026010BDB0B5FC4D81
:10027000287801280BD00024204600F04BFCEC60CD
:100280000648016840220A43026001206861044870
:10029000016801220A430260B0BDC0461808004848
:1002A000140401401B48007802490A6810180860CD
:1002B0007047C0462C01002080B506480168102216
:1002C0000A430260032000F007F800F027F800203E
:1002D00080BDC0460020024070B504467D20C000AD
:1002E0000C4E317800F024FC01460B48006800F009
:1002F0001FFC00F045F80125032C08D8002806D182
:100300000025E84321462A4600F01EF8746028467E
:1003100070BDC046600000206C00002082B009481B
:1003200001680122114301600168114001910199A6
:10033000110742680A4342604068084000900098F4
:1003400002B0704718100240002805D4032203466B
:1003500093430A4A9A1803E00C220240064BD21833
:100360008007C00E8901C9B28140FF238340106815
:10037000984308431060704714ED00E000E400E08B
:10038000401E010E01D0012070470749074A506006
:10039000074803680B4003218907591801600020B2
:1003A0009060072111607047FFFFFF0010E000E040
:1003B00020ED00E0FEE7FEE7B0B5A948416800295E
:1003C0002BD0416801291BD1016A41627A49CA7A5E
:1003D000002A44D00022A14B03E09C81521C002C37
:1003E0003DD08C18E47A1D682D06F6D41D682D06C4
:1003F000F3D41D682D06F0D41D682D06F3D5ECE767
:100400004168022931D1417861292FD1416A3029CF
:1004100037D169495A220A60C9E0016A41704178BE
:10042000612902D041786D2940D163490A79002AB7
:1004300015D00022894B03E09C81521C002C0ED069
:100440008C1824791D682D06F6D41D682D06F3D46A
:100450001D682D06F0D41D682D06F3D5ECE7416824
:10046000491C416041680229CDD0B0BD41786D2959
:1004700010D1416A302939D10021C1600021416089
:10048000B0BD416A31293AD14B495F220A6000214F
:100490004160B0BD41780D293AD14749497D427844
:1004A000612A37D142786D2A34D180E042494A7DB1
:1004B000002A15D00022694B03E09C81521C002CBD
:1004C0000ED08C18647D1D682D06F6D41D682D068F
:1004D000F3D41D682D06F0D41D682D06F3D5ECE786
:1004E0000021416041680229BFD18CE7416A31296E
:1004F00029D131490968C16000214160B0BD416A1C
:1005000032293AD12C4964220A6000214160B0BDF1
:100510002949497D00294AD00021504A264B03E051
:100520009481491C002C42D05C18647D15682D060E
:10053000F6D415682D06F3D415682D06F0D4156889
:100540002D06F3D5ECE71C494A7D002A2FD0002266
:10055000424B03E09C81521C002C28D08C18647DF7
:100560001D682D06F6D41D682D06F3D41D682D06D2
:10057000F0D41D682D06F3D5ECE70F494A7D002A1B
:1005800015D00022FB4B03E09C81521C002C0ED0A6
:100590008C18647D1D682D06F6D41D682D06F3D4D5
:1005A0001D682D06F0D41D682D06F3D5ECE700215B
:1005B0004160B0BD0401002000000020704770477A
:1005C00080B5FFF76FFE80BD70470000B0B51648DC
:1005D0000168164A8918164CE18016490160A08806
:1005E000E1884000401A20816088134909782289F7
:1005F0004A43101860802078642806D80F4D296877
:100600004843642100F094FAA860207820700C48D8
:100610000168490701D5006C60700A480168012231
:1006200091430160B0BDC046240400400180FFFF3B
:10063000F8000020FF7F0000680000202C20004010
:100640000024014010100040CA480168890604D502
:10065000BD490122CA610089086270471C480040F8
:1006600004010020F0B585B0B74D0024AC60FFF761
:1006700023FE01200390C004B44A116801431160B5
:1006800055200003B24F3A46183A049211680143CC
:100690001160384614380168AE4A1140016038468E
:1006A000103801681140016075210B0339460C397F
:1006B0000E689E430E603B1F1E6816401E60039A24
:1006C00056040296A14B1A6832431A600322019223
:1006D000D7430922D60632683A40326002683A406F
:1006E00002600868022200921043086000F04AF994
:1006F000964A106802990843106003988304029395
:100700001168194311603168394031607168746053
:10071000B168B460F168009A1143F1608E490A68CB
:10072000C0239A430A604A684C608A688C60CA6831
:1007300080231343CB6089490A6808231A430A605F
:100740000A68064602430A608A6802438A608A6829
:100750001A438A607D4841683143416080490A6894
:100760000C60320330460B6813430B60E6492022CD
:100770000A6040230B607B4B1E687B490E40019949
:100780008F07F6191E60794B1E6879490E40870362
:10079000F6191E60FF2636041F68B743C605BE194A
:1007A0001E600526760204990F6837430F601126F4
:1007B00036046748876837438760644886680299CB
:1007C0000E4386606B4E3046103845270760304632
:1007D0001C3807680D21394301600168114301602D
:1007E00003994807C84A10609869614A10409861A7
:1007F0004902574A1068049108431060686900284C
:1008000017D05F48017801E0B181641C00290DD048
:10081000015D32681206F7D432681206F4D43268E9
:100820001206F1D432681206F3D5EDE7002005B0C8
:10083000F0BD524F0BE00020A861E86028704449E9
:100840000868049A1043086068690028D9D168696B
:100850000028F4D1E869012803D1FFF7ADFD00209D
:10086000E861E868C0B200F055F928780028E6D0C1
:100870003F20395C002914D0002103E0B281491CDB
:10088000002A0ED07A18125C33681B06F6D433683F
:100890001B06F3D433681B06F0D433681B06F3D56C
:1008A000ECE7039800022A4A116801431160A86925
:1008B0003149884229D2E868C0B200F02BF9686952
:1008C000002807D1A869401CA861A8692A49884264
:1008D000F1D31AE02A480078002814D0002003E061
:1008E000B181401C00290ED02549095C32681206EE
:1008F000F6D432681206F3D432681206F0D43268A5
:100900001206F3D5ECE70020E8601748401C104AB7
:100910001168014311602920395C00298BD0002126
:1009200003E0B281491C002A85D07A18125C336832
:100930001B06F6D433681B06F3D433681B06F0D4C9
:1009400033681B06F3D5ECE70401002014100240C5
:1009500018080048FFAFFAFF0004004800040140F7
:100960000800014020ED00E0FFFFFF0004E400E08C
:10097000FF00FFFF1C48004080841E000000002094
:1009800070000020F0B582B00125680201900922B4
:10099000D206136803431360290213688B43136064
:1009A0000F231C04166AA6431662A8040090146A5A
:1009B000044314629B0214689C43146005239B0249
:1009C00014681C431460536920241C435461536908
:1009D0004024A3435361454C23680B432360444F99
:1009E00000233B60BB613B62B86968260643BE6179
:1009F000386A28433862BD624B200001F8627B638D
:100A0000386828433860204608380668009F3E430F
:100A100006602068022630432060364FBB613B628F
:100A2000BB603B60B86908432843B861B8680321DC
:100A30000143B9603048F862304878623968294328
:100A40003960216810270F4327602D490B278F62DB
:100A50002C4FCF62CF682F43CF600F682F430F60BA
:100A60006904294F3960FF210902284F38688843FB
:100A700022494018401C386010680C210143116065
:100A8000201F0168019A1143016021494B606803EE
:100A90004A6802434A60086A304308620B60E8070C
:100AA0000A6802430A600868002808D50868002818
:100AB00005D50868002802D508680028F3D408681E
:100AC00028430860084608380268D20708D102683F
:100AD000D20705D10268D20702D10068C007F1D061
:100AE0000868042202430A6002B0F0BD1C100240F4
:100AF0000020004000040040FFFF0000FF7F0000D6
:100B0000001000403075000000E100E010E400E05B
:100B10000824014010B5642806D8044C21684843D5
:100B2000642100F005F8A06010BDC0462C200040F4
:100B300043088B421AD3002203098B4279D3030A5C
:100B40008B425ED3030B8B4242D3030C8B4227D3E1
:100B50000902FF2212BA030C8B4202D312120902BD
:100B600003D0030B8B4233D31AE0D3E0411A804108
:100B7000401C704703460B4371D443088B42F5D3A6
:100B8000002203098B4254D3030A8B4239D3030B4F
:100B90008B421DD3030C8B4202D394466EE0090AAC
:100BA000C30B8B4201D3CB03C01A5241830B8B4240
:100BB00001D38B03C01A5241430B8B4201D34B0329
:100BC000C01A5241030B8B4201D30B03C01A52418E
:100BD000C30A8B4201D3CB02C01A5241830A8B4213
:100BE00001D38B02C01A5241430A8B4201D34B02FC
:100BF000C01A5241030A8B4201D30B02C01A524160
:100C0000CDD2C3098B4201D3CB01C01A5241830913
:100C10008B4201D38B01C01A524143098B4201D34D
:100C20004B01C01A524103098B4201D30B01C01A78
:100C30005241C3088B4201D3CB00C01A52418308F2
:100C40008B4201D38B00C01A524143088B4201D31F
:100C50004B00C01A5241411A524110007047CA0F4E
:100C600000D04942031000D34042534000229C462A
:100C700003098B422DD3030A8B4212D38901FC2234
:100C800012BA030A8B420CD3890192118B4208D30A
:100C9000890192118B4204D3890137D0921100E06F
:100CA0008909C3098B4201D3CB01C01A5241830980
:100CB0008B4201D38B01C01A524143098B4201D3AD
:100CC0004B01C01A524103098B4201D30B01C01AD8
:100CD0005241C3088B4201D3CB00C01A5241830852
:100CE0008B4201D38B00C01A5241D9D243088B42A8
:100CF00001D34B00C01A5241411A00D20146524161
:100D0000104663465B1000D34042704763465B1059
:100D100000D3404201B50021004201D0C94308463A
:100D2000C046C04602BD0000480D0008000000207B
:100D3000980000001C010008E00D00089800002049
:100D4000980600003C01000864000000204D6F641C
:100D5000650A002053657474696E670A0045525233
:100D60004F523A09494E56414C4944094B45590A9C
:100D70000046696C6C696E6720697320636F6D70E3
:100D80006C657465210A0054616E6B20456D70744A
:100D9000792C2066696C6C696E6720696E207072B0
:100DA0006F67726573730A000100000004000000A1
:100DB0000100000000127A00544F58494320574167
:100DC000544552094D414E55414C205245534554CE
:100DD0002052455155495245440A00000000000088
:04000005080000C12E
:00000001FF
